:020000040800F2
:10000000F8080020D500000889240008F91A000823
:1000100000000000000000000000000000000000E0
:10002000000000000000000000000000D3240008D1
:100030000000000000000000D12400087125000825
:10004000E7000008E7000008E7000008E7000008F4
:10005000E7000008E7000008E7000008E7000008E4
:1000600000000000E7000008E7000008E7000008C3
:10007000E7000008E700000800000000E7000008B3
:100080000000000000000000000000000000000070
:10009000E700000800000000E7000008E700000893
:1000A00000000000E7000008000000000000000061
:1000B000052A0008FD1A00080000000000000000EA
:1000C0000348854600F046FC00480047292C0008FC
:1000D000F80800200448804704480047FEE7FEE790
:1000E000FEE7FEE7FEE7FEE7E9250008C10000089D
:1000F00030B50B46014600202022012409E00D46C0
:10010000D5409D4205D31D469540491B2546954047
:1001100040191546521E002DF1DC30BDF0B51FB45C
:100120000646002082B005464024019100901BE065
:10013000019922460F46304600F048FB049A059B81
:10014000801A994110D310461946224600F02EFB22
:10015000361A8F410197224601200021009F00F0AE
:1001600025FB38184D4100902046641E0028DFDC36
:10017000019B00982946324607B0F0BDD2B201E09B
:100180000270401C491EFBD270470022F6E710B5F2
:1001900013460A4604461946FFF7F0FF204610BDF5
:1001A00030B505462A460B4610781C78521C5B1C5D
:1001B000002801D0A042F7D0002C03D0002802D0A4
:1001C0006D1CEFE7284630BD421C0178401C002919
:1001D000FBD1801A7047F8B502464A40D40F42005E
:1001E0004B0052085B089A4202D20246084611466A
:1001F0004A0023D0C30D4A00DDB2120EAD1A202DE5
:1002000035DA49020126490AF6058A19002C00D080
:10021000524220214F1B1146B9402A411018C20DED
:100220009A4221D0002C17D0012D08DCDA05801A63
:10023000D20F8019D207DBB200F0F4FAF8BDDA056C
:10024000801A012340001B06C01880185A428018EB
:10025000CA0F1043490007E04908C2071143DA05F5
:10026000801A80194008801800F0D4FAF8BD6100A7
:100270000122511A001BF7E70122D2075140AAE7D9
:100280000122D2075040A6E7024670B54A40D30F7C
:10029000DB0740002DD04A002AD0010E140E0002C8
:1002A00012020919400A520A8418E501044654430F
:1002B000000A120A2E045043A4194219200CC54307
:1002C000AA18120C0125AD03521C521912047F39D1
:1002D000240400D0521C104301D44000491EC2B275
:1002E0000C06C0092018401C4008802A02D003E0F8
:1002F000002070BD40084000002900DA00201843AB
:1003000070BD70B502464A40D50F40004A00ED0767
:1003100040085208002814D0002A12D0C40DD30D72
:1003200041020120C0055202490A520AE41A091882
:1003300012187D34914201D3641C00E04900002C66
:1003400001DA002070BD0023914201D3891A0343D2
:10035000400849000028F7D100290AD0914202D173
:100360000121C90705E0914201D2012101E00121EB
:10037000C943E005C018401900F04CFA70BD4200B6
:1003800005D04200120E52428A4201DB0020704723
:10039000C905081870470000F0B5074608465840E0
:1003A00087B0C00F049048000E4659004008490825
:1003B000BC1A884105D2384631461E4617460B46C0
:1003C00002465800400810434CD0300D03904005C1
:1003D0005900400D490D0590401A0290402872DAEC
:1003E00018030121000B09050843019004980092AD
:1003F000002805D0019952420020884100920190C6
:10040000029840210A1A0199009800F0CFF9054698
:100410000C466B4607CB00F0EAF9C0197141039A0C
:100420000E0D0023D71756401A467A40164344D083
:10043000049A002A2DD0029A012A039A15DC12058B
:10044000C01A914101263605001C7141D20F059E4C
:10045000D2070093019202962A46234600F028FA1A
:1004600007B0F0BD38463146FAE71605224A0F4676
:10047000B218C01AB74101210905001C4F410018EC
:100480007F41114618187941E20F10436D196441FC
:1004900013E0E2076D0815436408C2071443039A8A
:1004A00001261205C01A91413605001C7141CE0784
:1004B000400830434908C01851412A46234600F0FD
:1004C000EAF9CDE7FFE7049801224000C117121AAC
:1004D00000238B4104983146C417381AA141EEE736
:1004E00030B40124E407634030BC55E730B4012444
:1004F000E407614030BC4FE70000E0FFF0B51FB4F7
:1005000088B00B990998002448400999C00F490008
:1005100049080991C0070B990090490049080B91BF
:1005200009990898A64608431CD00B990A980843D5
:1005300018D0099801244000420D4800410D099847
:1005400024050003000B204309900B980003000BC7
:1005500020430B9050181C4940180022019014466B
:10056000104605E0002001460DB0F0BD032801DA79
:10057000034600E003239C46C11A0AAE0AE05F006E
:1005800008ADED5B4F00F75B7D430027AA187C4167
:10059000491C5B1E6145F2DD410004AB5A52210447
:1005A000120C0A43240C401C0828DFDB019802903F
:1005B0000099704601910090059B049A079906984E
:1005C00000F076F9D0E700000DFCFFFFF0B50C4617
:1005D0005C4085B0E40FE40703944C0000266408F7
:1005E00059009446490802460296224321D06246A9
:1005F0000A431ED06200570D4A000E032303550D17
:10060000012402462C492405781B1B0B360B40188D
:1006100023432643614600901C46501AB44103D33D
:100620000098401C009002E0921800985B4100285E
:1006300003DA0020014605B0F0BD002001210905C4
:100640000746864611E064461D46141BB54106D395
:100650006546521BB341744607430C43A646CD077B
:1006600040084908284392185B4105460D43EAD1EA
:100670001046184313D06046194650407140084355
:1006800006D06046101AB34106D20122002306E0CC
:1006900000220123DB0702E00122D243531000981D
:1006A00074460105381C6141029C039D0019694193
:1006B00000F0F1F8BFE70000FD03000010B50022D4
:1006C0009623114600F0AEF810BD00000EB50549A6
:1006D0000291002100910A460B46019100F0E8F8D2
:1006E00003B000BD33040000410040020122400A73
:1006F000D205090E80187F2901DA0020704796295B
:1007000003DC9622511AC8407047963988407047DA
:100710004A0009030123090B1B051943094B10B5B6
:10072000520D9A4201DA002010BD064B34339A4232
:1007300003DC9A1A00F04AF810BD034951188840AA
:1007400010BD0000FF030000CDFBFFFFC20FD2076A
:10075000400040080BD0C10D0723DB01C91840023F
:100760000905400A1143C2084007114370470020A1
:1007700001467047CB0FDB07490010B54908024618
:100780000A4307D00A0D07240903E401090B121BD1
:10079000002A01DC002010BDC900440F0C43C10039
:1007A000E018D205801800F035F810BD10B5202AE9
:1007B00004DB0146203A9140002010BD91402023E7
:1007C0009C1A0346E3401943904010BD10B5202AFF
:1007D00004DB0846203AD040002110BD0B46D34030
:1007E000D0402024A21A91400843194610BD10B5EC
:1007F000202A06DBCB170846203A1041C1170B43CD
:1008000006E00B461341D0402024A21A9140084331
:10081000194610BD002904DA401C490001D14008E6
:100820004000704770B40024050C05D1102400046A
:1008300002D1002921D01124050E01D10002083473
:10084000050F01D10001241D850F01D18000A41CDA
:10085000002801DB4000641C002908D020252E1B45
:100860000D46F540A14000D001212943084301066F
:100870001B1B000ADB1D02D5002070BC7047DB0586
:10088000181880180029F8DA401C4900F5D170BC0E
:1008900040084000704710B5002B08DA0024401CC7
:1008A000614192185B411A4301D14008400010BDDC
:1008B000F0B51FB482B005460C0003D0084602F024
:1008C000CDF802E002F0CAF820300246009021463E
:1008D0002846FFF76BFF049B059A04460F46184312
:1008E0001143084314D0184610431BD000984021F0
:1008F0000A1A18460599FFF769FF05460E46009A41
:1009000005990498FFF752FF084305D0012004E041
:100910002046394607B0F0BD0020C11705430E43FD
:100920002C43374300990E986305401A7905E40A71
:1009300000220C43FD0A0A3002D500200146E9E7F7
:100940000105101969410C9C0D9D00196941FFF7C3
:10095000A2FFDFE7064C0125064E05E0E36807CC61
:100960002B430C3C98471034B442F7D3FFF7ACFB51
:10097000043200082432000870B58C180578401C39
:100980006B075B0F01D10378401C2A1106D1027856
:10099000401C03E006780E70401C491C5B1EF9D118
:1009A0002B0705D40023521E0DD40B70491CFAE707
:1009B0000378401CCB1A921C03E01D780D70491C73
:1009C0005B1C521EF9D5A142D8D3002070BD000097
:1009D00038B50446064805490068FFF789FB6043BF
:1009E00000E0401E00900028FBD138BD40420F00BF
:1009F00090010020F8B50024244E04E0641CE4B209
:100A0000012000F0D9F93068400701D40A2CF5D351
:100A10000A2C02D11EA002F011F81C4F4037386892
:100A2000204C0025608104E06D1CEDB2012000F037
:100A3000C3F93068400701D40A2DF5D30A2D02D13D
:100A400019A001F0FBFF386880B2E081FFF73EFE9D
:100A500005460E46A089FFF739FE0022174BFFF727
:100A60004DFD2A463346FFF7B1FDFFF783FE0546ED
:100A700060616089FFF722FE2946FFF705FC0A2125
:100A8000C943FFF77CFC2061F8BD00000024014051
:100A9000CDA8B5C034D7AABBBBCAA7B0DCA3A10DF3
:100AA0000A00000004000020CDA8B5C03137D7AA45
:100AB000BBBBCAA7B0DCA3A10D0A00000000084020
:100AC000F8B506460D464036317C01290DD001218E
:100AD000317401688A68520709D5416D202211439B
:100AE0004165002030740120F8BD0220F8BD174B8D
:100AF0006A68D80547109A42154C8A6A2B6812D04A
:100B00005B035B0B1A438A622968490305D5A16818
:100B10000143A1600A20FFF75BFF2868800312D51C
:100B2000A06838430EE05B035B0B9A438A62296836
:100B3000490302D5A1688143A1602868800302D5DA
:100B4000A068B843A06000203074F8BD0110000018
:100B50000027014070B5040006D0606D26460025D0
:100B60004036002802D006E0012070BDA56535742E
:100B7000204600F0D3F8606DC00603D42168886871
:100B8000400705D5606D1021084360653574EBE7BB
:100B9000606DFF2201329043022210436065886835
:100BA0008207920F5B48012A02D10A68D2072BD133
:100BB000032362689B079A4205D05B429A4202D0A7
:100BC0005B009A4209D10A69920092080A61216881
:100BD0000A6963681A430A610CE00A699200920884
:100BE0000A6181680F229204914381608168626882
:100BF000114381602168CA6818239A43CA6021683A
:100C0000CA68A3681A43CA608168012252069143E8
:100C100081608168A28E52061143816020688168DC
:100C2000C90004D481680122120711438160206841
:100C3000C168394A1140C1602069E168022825D0A5
:100C400000200143204620300278037B52035B00E2
:100C50001A431143226B1143A26992031143E269C3
:100C6000D20311432268D3681943D160616A0A46EE
:100C7000FF3AC23A05D0A26A11432268D3681943E9
:100C8000D16042780121012A02D00BE00420D8E78C
:100C90000078002823D0606D202210436065A06D8D
:100CA0000843A065E06B012820681FD00169C907CF
:100CB00003D0016949084900016120684169C908F8
:100CC000C900416120684169A26B11434161A5657A
:100CD000606D80088000401C6065002070BD206849
:100CE000C26801231B041A43C260DBE70269FF23C9
:100CF0009B009A43026120680269236CA66C1A4328
:100D0000636C33431A430261206802690A4302613B
:100D1000D3E70000002701401902FEFF10B586B09E
:100D2000044614216846FFF730FA0E4920688842CD
:100D300016D10D48416B421511434163C16A01222E
:100D40001143C162C06A69461040059010200090AE
:100D500003200190002002900520000700F03AF8DF
:100D600006B010BD002401400010024070B5002400
:100D7000014620314A79022A03D00421C1630124AB
:100D800018E0026813680E25AB431360026813680D
:100D90005B085B001360436C1C2213400122154664
:100DA0009D40036C5D604A7100220A71816B0029CD
:100DB00000D08847204670BD70B5044600F0CAF8E0
:100DC0000546601C00D0641C00F0C4F8401BA04223
:100DD000FAD370BDF8B5002301249DE027469F405B
:100DE0003A4070D04D68022D01D0122D14D1DD088B
:100DF000AD002D1800952D6A5E07AC46F50E0F2646
:100E0000AE46AE406546B543AC460E697546AE404B
:100E100065462E43009D2E624D68012D05D0022DA2
:100E200003D0112D01D0122D16D185680326AC46B2
:100E30005D00AE46AE406546B543AC46CE687546ED
:100E4000AE4065462E43866046680D79BE43ED068A
:100E5000ED0F9D403543456006685F000325BD40AA
:100E6000AE46AE430D79B446AE07B60FBE406546FA
:100E70002E430660C6687546AE438D68BD40354357
:100E8000C5604D68ED0046D5264D6E6B26436E63FA
:100E90009E08254DB6007519AC46AD689E07360F05
:100EA0000F27B740BD4305273F07B84201D10027B0
:100EB00010E01E4FB84201D101270BE01C4FB84291
:100EC00002D1022706E026E01A4FB84201D10527D9
:100ED00000E00627B7402F436546AF60164D2E68E9
:100EE0004F689643FF0300D516432E606E684F6827
:100EF0009643BF0300D516436E60AE684F689643B5
:100F0000FF0200D51643AE60EE684F689643BF02FD
:100F100000D51643EE605B1C0A681546DD4000D024
:100F20005CE7F8BD001002400000014000040050E2
:100F300000080050001C00500004014000690840F7
:100F400000D001207047002A01D081617047816282
:100F500070470000014800687047000094010020BD
:100F600002480168491C016070470000940100209C
:100F700010B5084800240168402211430160204652
:100F800000F00AF8002801D0012401E000F01CF86C
:100F9000204610BD0020024070B5054609487D215D
:100FA0000024C9000068FFF7A3F800F0F7FB002851
:100FB00001D0012404E000222946501E00F01AF856
:100FC000204670BD900100200448416B012211436E
:100FD0004163816B0204114381637047001002403A
:100FE000C106C90E01208840014908607047000011
:100FF00000E100E010B501F049FA10BDF8B5044673
:1010000000784F4D800672D54D4E0027403EB06BA4
:10101000C00004D4B06BA9050843B0630127494858
:101020000168C90511D40168821511430160FFF7F9
:1010300091FF009005E0FFF78DFF0099401A6428AA
:1010400037D840480068C005F5D532680321090546
:1010500060680A400140914208D08103890F03294A
:1010600004D13168890301D50120F8BD2A69032123
:1010700009040A4022D0084090421FD02078800600
:101080001CD528692A6988430121C9040A432A61B9
:101090002A698A432A612861C0050FD5FFF75AFFE4
:1010A000009008E0FFF756FF0099411A2648814258
:1010B00001D90320F8BD28698005F3D5616888034C
:1010C000800F032805D132680005824301400A439E
:1010D00032602869032261681204114008432861C4
:1010E000002F04D0B16B012000078143B163207849
:1010F000800705D5E8680C218843A1680843E860AB
:101100002078400706D5E868032189028843E16812
:101110000843E8602078000706D5E8680321090342
:10112000884321690843E8602078000606D5E8680E
:1011300003218904884361690843E8600020F8BD01
:10114000401002400070004088130000F8B50E46C1
:1011500005007DD053480068C007C00FB0420AD2D6
:101160005048016849084900314301600068C007E0
:10117000C00FB04271D128784B4C800705D5E0688C
:10118000F0218843A9680843E0602878C00752D05E
:101190006868022817D0032818D02168012818D0C1
:1011A0008905002959DAE168890889000143E1606D
:1011B000FFF7D0FE69680746022912D003291CD028
:1011C000012926D033E021688903EAE721688901F3
:1011D000E7E74907E5E7FFF7BDFEC11B334881425A
:1011E00023D8E0680007800F0228F4D123E0FFF73E
:1011F000B1FEC11B2D48814217D8E0680007800F5F
:101200000328F4D117E0FFF7A5FEC11B2748814250
:101210000BD8E0680007800F0128F4D10BE0FFF73E
:1012200099FEC11B2148814201D90320F8BDE06825
:101230000007800FF3D11B480168C907C90FB142ED
:101240000DD901684908490031430160006800E098
:1012500003E0C007C00FB04201D00120F8BD2878DC
:10126000400706D5E068072109028843E96808437A
:10127000E0602878000707D5E0680721C9028843A5
:101280002969C9000843E06000F036F8E168084ABF
:101290000906090F515CC840064908600020FFF7A5
:1012A0007BFEF8BD002002400010024088130000C1
:1012B000E031000890010020044805490068C96831
:1012C000044A4905490F515CC8407047900100200D
:1012D00000100240F9310008044805490068C96857
:1012E000044A8904490F515CC840704790010020AE
:1012F00000100240F931000810B5184AD1680C20DE
:10130000084004280BD0082810D00C2810D05068B2
:101310000004410F0120C003491C884010BD106823
:10132000C00601D50E4810BD0E4810BD0E4810BDB8
:1013300088020E4B000F185C0902D368890F491C04
:10134000DB0301D5084A05E01268D20601D5044A3C
:1013500000E0044A5043FEF7CBFE10BD00100240EF
:1013600000093D000024F40000127A00F03100086A
:10137000FEB505007ED0FE4CE7680C20E66807400D
:101380000120000406402878C00747D0082F05D068
:101390000C2F0AD101200004864206D12068800368
:1013A0003CD568680028E5D038E001206968000471
:1013B000814203D121680143216011E0052301220C
:1013C0001B0492049942216802D111432160F1E784
:1013D0008143216021680140009120689043206092
:1013E000686800280DD0FFF7B5FD009005E0FFF715
:1013F000B1FD0099401A64287ED820688003F6D594
:101400000CE0FFF7A7FD009005E0FFF7A3FD0099B2
:10141000401A6428F0D820688003F6D42878800722
:101420005CD5E868810604D5226820210A43226041
:1014300088430923042F0DD00C2F01D1002E09D091
:1014400000283BD02168994301432160FFF782FDCA
:10145000064627E02168490701D500288AD061683F
:101460001F22120291432A6912021143616021680E
:10147000994300E08EE101432160FFF73DFFE16801
:1014800009060A0FBB49895CC840BB4908600020B7
:10149000FFF782FD002873D120E0FFF75BFD801B82
:1014A0000228A9D820684007F7D560681F210902E3
:1014B000884329690902084360600FE020684008FA
:1014C00040002060FFF746FD064604E0FFF742FDBE
:1014D000801B022890D820684007F7D42878C006DF
:1014E00060D5002F0DD0A86900284AD02068FF21C0
:1014F00001310843206000E0C4E0FFF72BFD064601
:101500002CE02068800502D5A8690028A6D0606874
:10151000072149038843296A084360606068297F7E
:101520000002000A090608436060286A410B012096
:10153000C003491C8840E16809060A0F8D49895C8F
:10154000C8408D4908600020FFF726FD002817D10C
:1015500028E0FFF7FFFC801B0228A2D82068800546
:10156000F7D56068072149038843296A084360600A
:101570006068297F0002000A09060843606011E0E4
:10158000E1E02168FF20013081432160FFF7E2FCA8
:10159000064604E0FFF7DEFC801B022872D82068B4
:1015A0008005F7D42878754E000724D5686900288F
:1015B000306910D0012108433061FFF7CBFC009067
:1015C00005E0FFF7C7FC0099401A02285AD8306995
:1015D0008007F6D50FE0400840003061FFF7BAFC05
:1015E000009005E0FFF7B6FC0099401A022849D8A0
:1015F00030698007F6D42878400765D5002002902E
:10160000A06BC00006D4A06B012109070843A063AA
:10161000012002905A480168C90511D40168821559
:1016200011430160FFF796FC009005E0FFF792FC84
:101630000099401A642825D851480068C005F5D59E
:10164000FF20AA680130824203D131690143316130
:1016500011E001218902002A07D005231B029A42CA
:1016600003D132690A433261EFE732698243326162
:10167000306988433061A86800280FD0FFF76AFC02
:10168000009007E05EE0FFF765FC0099411A3D48D5
:10169000814257D830698005F5D50DE0FFF75AFC37
:1016A000009006E0FFF756FC0099411A3548814248
:1016B00048D830698005F5D40298002804D0A16B81
:1016C000012000078143A163686A002864D00C2FC1
:1016D0003ED0012636060228206805D0B04320609F
:1016E000FFF738FC05462FE0B0432060FFF732FCDF
:1016F000074604E0FFF72EFCC01B022822D8206812
:101700008001F7D4E96AA86AE2680843296BFD23DF
:101710001B049A4311430843E06020683043206073
:10172000FFF718FC054604E0FFF714FC401B0228F5
:1017300008D820688001F7D52EE0FFF70BFC401B8E
:10174000022801D90320FEBD20688001F5D423E0E2
:101750000128F8D0E06801210904AA6A01409142F9
:1017600018D10F218904EA6A0140914212D10BE09D
:1017700000100240E03100089001002040100240BB
:101780000070004088130000032189050840296B80
:10179000884201D00120FEBD0020FEBD094910B5E0
:1017A000401E884201D9012010BD074C6061032111
:1017B000081F00F06BFE0020A061072020610020C0
:1017C00010BD0000FFFFFF0000E000E07047704721
:1017D000F8B502680446D0691168936805072D0FB3
:1017E0005BD0DD07ED0FFF2621360E402E4367D07C
:1017F000C60706D0CE0504D501261662E26F324335
:10180000E267870702220426002F06DADF0704D0EA
:1018100027683A62E76F3743E767470706D5DB0774
:1018200004D023681E62E36F1343E367020709D500
:1018300020220A402A4305D0236808221A62E36F57
:101840001343E367E26F002A2FD0800606D588068F
:1018500004D5216E002901D020468847E06F216819
:101860008968490601D4000724D5204600F086FF88
:1018700020688168490619D58168402291438160BA
:10188000E06E002812D020498163E06EFFF76EFA07
:1018900000280AD0E06E816B06E0850610D58D0623
:1018A0000ED5216E1CE020468847F8BD2046FFF784
:1018B0008EFFF8BD2046FFF78AFF0020E067F8BDE5
:1018C000C50208D55B0206D501200005106220463E
:1018D000FFF77CFFF8BD030605D50B0603D5616E47
:1018E0000029E0D1F8BD4006FCD54806FAD51368BA
:1018F000204640218B4313602021616700216166EF
:1019000000F0F9F8F8BD00006927000810B50400E0
:1019100003D0606F002802D007E0012010BD002135
:1019200070200155204600F027F8242060672068C9
:101930000168490849000160204600F02FFF012896
:10194000ECD0606A002802D0204600F077FE2068C4
:1019500041680922D20291434160206881682A22AD
:101960009143816020680168012211430160204693
:1019700000F0CAFE10BD0000F0B587B00446142187
:101980006846FEF702FC254F266805200022244900
:101990000123022403250007BE421AD18E6B9F0447
:1019A0003E438E63CE6A1E43CE62C96A03951940D8
:1019B00005910C210091062104910194029269463F
:1019C000FFF708FA002211461D20FFF713FB1D2028
:1019D0001FE0144FBE421ED18E6B01277F043E4391
:1019E0008E63CE6A1E43CE62C96A0395C907C90FCA
:1019F000059103214902009104210491019402926E
:101A00006946FFF7E7F9002211461C20FFF7F2FABA
:101A10001C20FFF7E5FA07B0F0BD000000480040C9
:101A20000010024000440040FFB50446406F83B000
:101A300017460D4620285CD1002D0AD0002F08D073
:101A4000A168C001814207D12069002804D1E807BC
:101A500002D0012007B0F0BD204660300290007C2B
:101A6000012846D00298012101740020E06721205E
:101A70006067FFF76FFA264640360190378277821B
:101A80000120A1680003814202D12069002802D010
:101A90002F46002511E000270FE00022802120467C
:101AA00000F07EFF002815D1002F15D0216838786E
:101AB00088627F1C708A401E7082708A019B002899
:101AC00006980090E9D100224021204600F068FFEE
:101AD000002808D00320BDE728882168C005C00D74
:101AE0008862AD1CE6E72020606702990020087438
:101AF000B0E70220AEE77047FEE7000010B50A48E5
:101B00000068C16989060AD5426A0948074B01790C
:101B10005A54491C01710121C170002141710248D0
:101B2000FFF756FE10BD0000F8010020F80300206A
:101B3000880100207CB50025284800950195264C99
:101B4000C56385602205046042600722826301222A
:101B50000346C5602033026129461A70FF2659707A
:101B6000C23646628162197301630426826146614E
:101B7000C2614163FEF7EEFF194800900014019026
:101B800069461648FEF79CFF1648009069461348C0
:101B9000FEF796FFA06861050843A06004E06D1C95
:101BA000EDB20120FFF708F92068000501D40A2DE5
:101BB000F5D30A2D02D10CA000F040FF20680121CE
:101BC000C902084320600E480E49008B8881A06836
:101BD0003043A0607CBD0000002401409C01002037
:101BE0001000001000000244414443B3F5CABCBBDE
:101BF000AFD0A3D7BCCAA7B0DCA3A10D0A000000D8
:101C00006000F81F04000020F0B587B0142168467A
:101C1000FEF7BBFA2748C26A04210A43C262C26ABD
:101C20000A400592C16A01252943C162C16A29405F
:101C30000591C16A02263143C162C06A1E4F30401D
:101C4000EC0305902A4621463846FFF77CF905202B
:101C50000022E3210007FFF776F90122022117484D
:101C6000FFF771F900940024019502946946384603
:101C70000394FFF7AFF863200090052002946946B3
:101C8000019503940007FFF7A5F88020694661C11C
:101C90000520694600070395FFF79CF81120019085
:101CA00002946946009603940448FFF793F807B03E
:101CB000F0BD000000100240000800500004005079
:101CC00010B50D4C0B4820604B20C0016060002017
:101CD000A060E0602061A0610C212062616160620F
:101CE0002046FFF713FE206801682022114301609F
:101CF00010BD000000480040F801002010B50D4C58
:101D00000B4820604B20C00160600020A060E060B4
:101D10002061A061E0610C21206261616062204667
:101D2000FFF7F4FD2068016820221143016010BD17
:101D3000004400407802002010B502210848FFF757
:101D4000FDF8084C002805D007A000F077FE002021
:101D5000207010BD09A000F071FE0120F8E700001E
:101D60000004005000000020BFD5C6F8D6CAC1BF8D
:101D7000B2BBB4EDA3A10D0A00000000BFD5C6F8A8
:101D8000D6CAC1BFB2EEA3A10D0A0000F8B5FAA1F0
:101D9000FD48FEF705FA2C2500287DD0FA4E707C10
:101DA0002C287AD1002703E07F1CFFB20A2F05D828
:101DB000F019807C2C28F7D10A2F01D9F3A008E173
:101DC000F9A1F148FEF7ECF9002833D0F8480024D7
:101DD0000146643907E03219927C0B191A75031910
:101DE000641C1A74E4B2BC42F5D3001905743321A3
:101DF000417481743221C17430210175457581753A
:101E0000C57535220276372242768176C17605770E
:101E1000342242778577C277203005700571417191
:101E20008571C1710D2101720A214172E048943817
:101E30008471A5E0DFA1D448FEF7B2F9002862D092
:101E4000DB48002478300246DC3A0BE03119897C0B
:101E50001319197503191974D54BB4331B19641C64
:101E60001974E4B2BC42F1D30019057433214174F2
:101E70008174C17436270775457530218175C57524
:101E8000352303764376312282763326C67605776C
:101E900042778577392601E084E09CE0C6772030E0
:101EA000057022264670C672057342738573C1732E
:101EB0000D2606740A264674BD483326B430001930
:101EC000057446748674C674077545758175C57545
:101ED0000376437682763423C37605774277857717
:101EE000C277203001704570222282704273857360
:101EF000C173057441740D2181740A21C174AC4809
:101F00009438C4713CE0ADA19F48FEF749F9002820
:101F100036D0A749002464390846A03007E03219BA
:101F2000927C0B191A750319641C1A74E4B2BC4232
:101F3000F5D3001905743321417481743221C174C1
:101F400035220275457530218175C57502763722B7
:101F5000427681763122C276057742778577C277DD
:101F60002030057022224270C27005714171857166
:101F7000C1710D2101720A2141728D489438047299
:101F80008B48312164380019057541750D21817523
:101F90000A21C17586481834E1B28AA2643800F07B
:101FA00099FA8CE088A17848FEF7FAF8002812D058
:101FB0007549887C2C280ED1002003E0401CC0B25B
:101FC0000A2805D80A18D27C2C2AF7D10A2803D966
:101FD00081A000F033FD72E0754E0024323E05E032
:101FE0000A193319D27C641C5A75E4B28442F7D3BF
:101FF00070A16548FEF7D4F800281ED03019457549
:1020000031228275C5753921017645762223837682
:102010003521C17601774277332585773B25C57712
:1020200020300170417082703421C17003710D2124
:1020300041710A218171273436E05BA15248FEF7D5
:10204000AFF8002812D03019457531218175C5755A
:10205000342101764576222181763522C2763722D7
:102060000277302242778277C17717E053A1464842
:10207000FEF796F8002822D0301945753121817578
:10208000C575342202764576222282763523C376C0
:1020900037230377302343778177C2770D212030B0
:1020A00001700A21417022344148E1B245A2323820
:1020B00000F010FA3E4894380178491C01704DA197
:1020C0003148FEF76DF8002855D02F4F787F412812
:1020D00051D13C4620346078494930384843A17892
:1020E000484A334D5143411820797D22D200504354
:1020F00009186079642250430918A0790A225043D4
:102100000818E179943D41183F480818A861FEF786
:10211000D5FA3E49FEF7F5F80646E861F87F0A224F
:1021200030382178504330380818FEF7C7FA314666
:10213000FEF751F83649FEF7A7F86862FEF7D4FAC1
:10214000074634492862FDF7D3FF194AEB79783204
:10215000D61830302036B07008462F49FDF7C8FF3A
:102160003030F0702E2030712B493846FDF7C0FF1B
:102170000846234952E05BE12B4D49504C4F4253F6
:10218000455256453A000000F80300202B4D4950B7
:102190004C4F425345525645CAFDBEDDBDD3CAD54C
:1021A000B4EDCEF30D0A00003333323000000000EE
:1021B00098000020333333360000000033333235CB
:1021C000000000004F4B00002B4D49504C44495338
:1021D000434F5645523A00002B4D49504C44495309
:1021E000434F564552CAFDBEDDBDD3CAD5B4EDCE70
:1021F000F30D0A002B51474E535352443A0000004E
:10220000A086010010270000B0DCF7FF007C124917
:10221000002474498096980040420F00FDF768FF43
:102220003030707183493846FDF762FF08468249B5
:10223000FDF75EFF3030B0717F493846FDF758FF3B
:1022400008467D21C900FDF753FF3030F0717D2134
:10225000C9003846FDF74CFF08466421FDF748FFEA
:102260003030307264213846FDF742FF08460A21BB
:10227000FDF73EFF303070720A213846FDF738FF17
:102280003031B17239466DA000F0D8FBA07B6949AE
:1022900030384843E17B684A51434118607C7D22D5
:1022A000D20050430918A07C642250430918E07CF6
:1022B0000A2250430918207D091863480818A861AC
:1022C000FEF7FCF96149FEF71CF80646E861E07A82
:1022D000617B6422303850430918207B0A22504326
:1022E00021221201801A0818FEF7E8F93146FDF79D
:1022F00072FF5749FDF7C8FFE862FEF7F5F9064699
:102300005449A862FDF7F4FE534AEB793030D418F3
:102310002034E07008465149FDF7EAFE3030207164
:102320004E493046FDF7E4FE08464D49FDF7E0FE14
:10233000303060712E20A07149493046FDF7D8FE3B
:1023400008463C49FDF7D4FE3030E071394930464B
:10235000FDF7CEFE08463849FDF7CAFE3030207240
:1023600035493046FDF7C4FE08467D21C900FDF71A
:10237000BFFE303060727D21C9003046FDF7B8FEE7
:1023800008466421FDF7B4FE3030A0726421304667
:10239000FDF7AEFE08460A21FDF7AAFE3030E072D6
:1023A0000A213046FDF7A4FE3031217331462DA0BD
:1023B00000F044FB2E4C2FA0217800F03FFB294673
:1023C0002A7A2078D0318918303020318870E87925
:1023D0002BA23230C1B220483C3800F07BF8EA79B9
:1023E0001D497D23DB003C3926483232FFF71CFBB8
:1023F000E87923A23430C1B2174800F06BF8EA79CB
:102400007D23DB0014491F483432FFF70DFB287A87
:102410001BA22A30C1B22846D03000F05BF82A7ADD
:102420007D232946DB00D03116482A32FFF7FCFA1B
:10243000F8BD0000A086010010270000CEB3B6C88A
:102440003D25640D0A000000B0DCF7FF007C124956
:102450000024744900E1F5054C01002080969800A5
:1024600040420F00BEADB6C83D25640D0A00000015
:1024700000000020666C67203D2025640D0A0000E6
:102480004F4B000078020020704700008307FF22B6
:10249000DB0E9A408907090E994000280BDA0007E5
:1024A000000F0838830808489B001818C369934335
:1024B0000B43C3617047830804489B001B181868CE
:1024C000904308431860704700ED00E000E400E02E
:1024D00070477047F7B507460D4600241F48FDF7C3
:1024E00073FE01461D48FDF750FE7D26F60033467B
:1024F0002A4639461A48FFF797FAFF27194D2D3714
:1025000004E0641CA4B20120FEF756FC28780028E1
:1025100001D1BC42F5D3BC4201D101241CE0124CD4
:102520002078401C20700120FEF746FC20780A2805
:10253000F6D30E4C0A483346227808498030FFF71C
:1025400073FA002020702870022404480299FDF7D5
:1025500027FE002800D000242046FEBDF8030020FE
:10256000F80100208B0100208D0100208C0100204B
:1025700010B5FEF7F5FC10BD30B599B034216846B2
:10258000FDF703FE14210DA8FDF7FFFD182112A889
:10259000FDF7FBFD134801680322D2029143C214E8
:1025A0008918016002200090002410200994012560
:1025B000049003956846FEF7DBFE0F200D90802007
:1025C0000F900E951094002111940DA8FEF7BEFDFA
:1025D000062012901494159412A8FEF70FFD19B05E
:1025E00030BD0000007000401048016882151143A2
:1025F0000160C1680E4A1140C16001680D4A114076
:1026000001608168490849008160016801229204E3
:1026100091430160C168FD2212049143C160002111
:1026200001610549C0038860704700000010024046
:102630000C40FF88F6FFF6FE00ED00E010B5818C3F
:10264000C90707D001684A6801235B049A43836A7B
:102650001A434A60818C890707D501684A680123BB
:102660001B049A43C36A1A434A60818C490707D501
:1026700001684A6801239B049A43036B1A434A602A
:10268000818C090707D501684A680123DB039A4357
:10269000436B1A434A60818CC90607D5026891686A
:1026A00001231B039943836B19439160818C890635
:1026B00007D501688A6801235B039A43C36B1A43F9
:1026C0008A60818C490612D503685A680121090580
:1026D000046C8A4322435A60026C8A4207D1026822
:1026E000516803235B059943436C19435160818C06
:1026F000090607D501684A680123DB04806C9A4308
:1027000002434A6010BD0000F8B500260446C667C3
:10271000FEF720FC054620680068124F000709D527
:1027200001212B46002249052046009700F038F988
:1027300000280DD12068006840070BD501212B46E9
:10274000002289052046009700F02AF9002801D0D0
:102750000320F8BD20206067A06760342674002045
:10276000F8BD0000FFFFFF0110B5806A002201469E
:1027700040314A834A82FFF72AF810BD01680A688F
:10278000FF2321339A430A6001688A685208520085
:102790008A6020218167002101667047F8B50446F0
:1027A0002669A268E76932436669102000253E4326
:1027B0002368324370491E68704F3E4016431E60C6
:1027C0002268536803263603B343E66833435360F5
:1027D0002368A2698B4201D0266A32439E680B2788
:1027E0003F02BE4316439E60654E2368654AB3426E
:1027F0000AD1D2680C26324026D0042A28D0082AD2
:1028000024D00C2A10D10EE08B420DD1D6680322C1
:102810009202164018D001229202B61A18D0B61AA7
:1028200014D0964200D10820564A0126403A564F0D
:10283000F6038B4236D100280CD002280DD0042894
:1028400012D008281FD11CE00020EDE70220EBE7A2
:102850000420E9E7FEF730FD08E01068C00601D566
:10286000384605E0494803E0FEF746FD002873D0EE
:10287000626851005118814205D81103814202D388
:1028800003E03046F4E7012566E0010E0602500839
:10289000002330185941FDF741FC03210902411A78
:1028A0003B4A55E0E169B14232D1030000F0EDF856
:1028B00009070A0D06250606062B0600E3E7FEF7C4
:1028C000FBFC1CE0FEF708FD19E010686168C0061B
:1028D00002D548082F4A01E02F4A48088018FDF722
:1028E00007FC80B201462D4A10399142CBD8511CC9
:1028F00001400007400F08432CE0FEF7FDFC616833
:1029000040004A08EAE76168012248081204E5E746
:10291000030000F0BAF809070A0D06260606062C81
:102920000600B0E7FEF7C8FC1DE0FEF7D5FC1AE094
:1029300010686168C00602D54808C01902E0134853
:102940004A081018FDF7D4FB80B20146134A10392B
:10295000914298D82168C8600020206660662846A9
:10296000F8BDFEF7C9FC61684A088018EAE76168AB
:1029700048088019E6E7000000480040F369FFEFCF
:10298000004400404010024000093D000024F400D3
:10299000FFFC0F0000127A000048E801EFFF000082
:1029A000FFB581B017460E4604460A9D09E0681C33
:1029B00007D0FEF7CFFA0499401AA8420CD8002D90
:1029C0000AD02068C1693046884318D00020B84238
:1029D000EDD0002005B0F0BD20680168FF22A132D3
:1029E0009143016020688168490849008160202086
:1029F0006067A0670020603420740320EAE70120AC
:102A0000E5E7000010B50A480068C16989060AD5E3
:102A1000426A0948074B41785A54491C41700121C8
:102A20000170002181700248FEF7D2FE10BD000047
:102A300078020020F8020020880100200FB410B5B1
:102A400003A9044B044A029800F03CF810BC08BCEF
:102A500004B01847152C0008980100202021020C12
:102A600001D010211046020A01D01046083902098F
:102A700001D01046091F820801D01046891E420865
:102A800001D0881E7047081A704730B47446641E1F
:102A90002578641CAB4200D21D46635D5B00E318E1
:102AA00030BC184702E008C8121F08C1002AFAD13A
:102AB00070477047002001E001C1121F002AFBD1BE
:102AC00070470000FFB58DB00446002506E02528BC
:102AD0000AD0109A0F999047641C6D1C207800282A
:102AE000F5D1284611B0F0BD00270121484A0097D2
:102AF00000E00743641C23780846203B98401042BE
:102B0000F7D120782E2817D1042007436078641C61
:102B10002A280CD10E98641C02C800910E900BE07C
:102B200000990A22514330394018641C00902078E3
:102B3000014630390929F3D920780028D1D06428FA
:102B400008D0692806D075281ED0109A0F99904792
:102B50006D1C5BE00A200E99019001C90E910028BE
:102B600002DA40422D2102E0390504D52B216A46C4
:102B70001172012103E0F90704D02021F7E70BAE21
:102B80000B910DE00021FAE70A200E99019001C98E
:102B90000E91F7E70199FDF7ABFA3031761E3170EF
:102BA0000028F7D103A8801B20300190780701D5B9
:102BB000009801E0012000900199884201DD401A4F
:102BC00000E000200027009006E002A8109AC05DF7
:102BD0000F9990476D1C7F1C0B988742F5DB04E032
:102BE000109A30200F9990476D1C0099481E009054
:102BF0000029F5DC05E03078109A761C0F99904793
:102C00006D1C0199481E01900029F4DC641C65E7E5
:102C1000092801000349CA695206FCD5C2B28A627A
:102C2000704700000044004008B50025FEF7A0F9F9
:102C3000FFF7A2FCFEF7E8FFFEF77CFFFFF740F886
:102C4000FFF75CF801210022C903E548FEF77BF994
:102C500005242407012280212046FEF774F9012271
:102C600040212046FEF76FF94B20C000FEF7A4F884
:102C7000002240212046FEF766F90122202120464D
:102C8000FEF761F93C20FEF797F80022202120464C
:102C9000FEF759F9D348FEF78FF87D24E40002E0EF
:102CA0002046FEF789F8D0A20421D0A0FFF712FC3D
:102CB0000028F5D1CFA0FFF7C1FE02E02046FEF7C5
:102CC0007BF8C9A20621CFA0FFF704FC0028F5D1AC
:102CD000CEA0FFF7B3FED14E0020D14F7071C2A23B
:102CE0000821D0A0FFF7F6FB002813D1B8782B28D5
:102CF00010D1787A2C2803D0B97A2C2903D009E096
:102D0000387A303805E0397A0A223039514330397F
:102D1000401870712046FEF74FF870790028DED019
:102D20006328DCD0BD484179C1A0FFF787FE02E0EF
:102D30002046FEF741F8C4A20B21C6A0FFF7CAFB4C
:102D40000028F5D1C6A0FFF779FE02E02046FEF785
:102D500033F8C8A20B21CAA0FFF7BCFB0028F5D1AD
:102D6000CAA0FFF76BFE02E02046FEF725F89EA200
:102D70000D21C9A0FFF7AEFB0028F5D1CAA0FFF7CF
:102D80005DFE7D20000101E07D20C000FEF714F80B
:102D9000CBA20C21CDA0FFF79DFB0028F4D1CFA042
:102DA000FFF74CFE90A20F21D1A0FFF793FB642008
:102DB000FEF702F88CA22021D1A0FFF78BFB8AA29C
:102DC0002021D8A0FFF786FB87A22021DEA0FFF7F5
:102DD00081FB6420FDF7F0FF83A21521E3A0FFF73C
:102DE00079FBE84E3078012814D1E74C2078401C5C
:102DF00020700120FDF7E0FF20780A28F6D3002498
:102E00003470E24E7D23DB003278E149E148FEF781
:102E10000BFE3470E04E3078012817D1DF4C20785B
:102E2000401C20700120FDF7C7FF20780A28F6D348
:102E300000243470DA4ED7487D23DB00327878499D
:102E40008030FEF7F1FD3470FEF7A0FFD54C022173
:102E50002046FEF773F8002810D10122D103604804
:102E6000FEF771F802212046FEF768F80028F9D035
:102E70000520002280210007FEF765F86D1CADB229
:102E80000020FDF799FF7D20C0008542A9D90025CB
:102E9000FDF7B0FD00273E46604CFDF7ABFD384620
:102EA0002169FDF798F9761CF6B207460A2EF4D38D
:102EB000BD49FDF726FABD492061884201DD642045
:102EC00027E0BB4988420EDA0020A0706078401CE1
:102ED000C0B2607002281DD90520002280210007A1
:102EE000FEF731F816E0FDF731FCB24AB24BFDF7C0
:102EF000FDFAB24E00223346FDF700FBAD4AB04B5F
:102F00005242FDF763FB00223346FDF7EFFAFDF76F
:102F1000FFFBA0702078032800D062E7FEF70CFFCB
:102F2000A07864210090FDF7E3F83C4AA779943239
:102F3000D61930302036707008460A21FDF7D8F8CF
:102F40003030B0700A210098FDF7D2F83031F170BE
:102F5000E0780099814212D030482A37F9B222A293
:102F60009430FFF7B7FAA2792C498A487D23DB0019
:102F7000943180302A32FEF757FDA078E0707D232F
:102F8000DB0017228FA18348FEF74EFD7D273F010E
:102F90003846FDF711FF914E2179307888420FD0E5
:102FA000207A11A22A30C1B21C48D030FFF792FA21
:102FB000307820710520012280210007FDF7C3FF32
:102FC00005242407012280212046FDF7BCFF384656
:102FD000FDF7F2FE002280212046FDF7B4FF00E756
:102FE00000080050102700004F4B000041540D0A0C
:102FF0000000000042433230C4A3D7E9D5FDB3A39B
:103000000D0A0000415445300D0A0000D2D1BEAD7A
:10301000B9D8B1D5BBD8CFD40D0A00000400002028
:10302000F803002041542B4353510D0A00000000C7
:103030004E425F5369676E616C5F56616C75653DAA
:1030400025640D0A000000002B43455245473A20F5
:10305000302C310041542B43455245473F0D0A0067
:10306000455053CDF8C2E7D7A2B2E1B3C9B9A60D16
:103070000A0000002B43474154543A20310000001D
:1030800041542B43474154543F0D0A005053D2D171
:10309000B8BDD7C50D0A000041542B51474E5353BC
:1030A000433D310D0A000000474E5353B4F2BFAA0E
:1030B000C3FCC1EED2D1B7A2CBCD0D0A00000000F7
:1030C0002B51474E5353433A2031000041542B516A
:1030D000474E5353433F0D0A00000000474E5353E1
:1030E000B5E7D4B4D2D1B4F2BFAA0D0A00000000F3
:1030F00041542B4D49504C4352454154450D0A0013
:1031000041542B4D49504C4144444F424A3D302C90
:10311000333332352C312C2231222C312C300D0A14
:103120000000000041542B4D49504C4144444F4253
:103130004A3D302C333332302C312C2231222C3189
:103140002C300D0A0000000041542B4D49504C41D9
:1031500044444F424A3D302C333333362C312C22F9
:1031600031222C322C300D0A0000000041542B4D2E
:1031700049504C4F50454E3D302C38363430300D90
:103180000A000000880100208A0100208901002037
:10319000F8020020F80100208B0100208D010020A2
:1031A0008C01002000040050000020413333834094
:1031B0000000404066666666666610400000594042
:1031C0009999F13F41542B51474E535352443D225C
:1031D0004E4D45412F524D43220D0A000000002064
:1031E00000000000000000000102030406070809B7
:1031F000030406080C101820300000000001020330
:103200000400000024320008000000209C0100009F
:10321000780900085C3200089C0100205C0700006F
:10322000B42A0008013408152341542B4D49504C51
:103230004F4253455256455253503D302C321E4456
:103240004953434F3209213359320F1F4E4F5449CE
:0C32500046596009C03CA192200000001B
:04000005080000C12E
:00000001FF
